:020000040800F2
:10000000400D002065020008571A00086319000817
:10001000551A0008B304000855200008000000002D
:100020000000000000000000000000005D1A000851
:100030000D05000800000000591A00085F1A0008AA
:100040007F0200087F0200087F0200087F0200088C
:100050007F0200087F0200087F0200087F0200087C
:100060007F0200087F0200087F0200087F0200086C
:100070007F0200087F0200087F0200087F0200085C
:100080007F0200087F0200087F0200087F0200084C
:100090007F0200087F0200087F0200087F0200083C
:1000A0007F020008091B00087F0200087F02000889
:1000B0007F0200087F0200087F0200087F0200081C
:1000C0007F0200087F0200087F0200087F0200080C
:1000D0007F020008092000081520000821200008E0
:1000E0007F0200087F0200087F0200087F020008EC
:1000F0007F0200087F0200087F0200087F020008DC
:100100007F0200087F0200087F0200087F020008CB
:100110000D1D0008191D00087F0200087F0200085D
:100120007F0200087F0200087F0200087F020008AB
:100130007F02000800000000000000007F020008AD
:100140007F0200087F0200087F0200087F0200088B
:100150007F0200087F0200087F0200087F0200087B
:100160007F0200087F0200087F0200087F0200086B
:100170007F0200087F0200087F02000800000000E4
:10018000000000007F0200080000000000000000E6
:100190007F02000800000000000000007F0200084D
:1001A0000000000000000000000000007F020008C6
:1001B0007F0200087F0200087F0200087F0200081B
:1001C0007F02000800F002F800F03CF80AA090E876
:1001D000000C82448344AAF10107DA4501D100F002
:1001E00031F8AFF2090EBAE80F0013F0010F18BF93
:1001F000FB1A43F0010318472821000048210000A2
:10020000103A24BF78C878C1FAD8520724BF30C842
:1002100030C144BF04680C60704700000023002414
:1002200000250026103A28BF78C1FBD8520728BF06
:1002300030C148BF0B6070471FB502F05FF81FBDAB
:1002400010B510BD00F0FBF81146FFF7F5FF01F007
:10025000B5FF00F019F903B4FFF7F2FF03BC00F09B
:1002600021F900000948804709480047FEE7FEE7FA
:10027000FEE7FEE7FEE7FEE7FEE7FEE7FEE7FEE756
:1002800004480549054A064B70470000F91A000862
:10029000C501000840070020400D00204009002053
:1002A0004009002053EA020C00F069802DE9F04B70
:1002B0004FF00006002B1FBFB3FA83F503FA05F4D5
:1002C00024FA05F65E4012BF1643B2FA82F502FA2E
:1002D00005F4C5F120051EBF22FA05FC44EA0C0412
:1002E000203556EA044C4FEA144418BF641C4FF002
:1002F00000084FF00009904271EB030C39D300293C
:1003000019BFB1FA81F701FA07F6B0FA80F700FADF
:1003100007F6C7F120071EBF20FA07FC46EA0C06C5
:100320002037B6FBF4FCA7EB0507103F07F01F0BC7
:10033000CBF120060CFA0BFB2CFA06F644BFB346B1
:100340000026202FA4BF5E464FF0000B5BEA060C90
:1003500008BF4FF0010B19EB0B09ABFB027C48EB1C
:100360000608C01B06FB02CC0BFB03CC71EB0C0197
:10037000C1E70B46024641464846BDE8F08B13B53F
:100380004FF000004FF00001AFF30080BDE81C40CB
:10039000704740EA010310B59B070FD1042A0DD323
:1003A00010C808C9121F9C42F8D020BA19BA884256
:1003B00001D9012010BD4FF0FF3010BD1AB1D30795
:1003C00003D0521C07E0002010BD10F8013B11F8CB
:1003D000014B1B1B07D110F8013B11F8014B1B1BF4
:1003E00001D1921EF1D1184610BD4FF0000200B5A8
:1003F000134694469646203922BFA0E80C50A0E848
:100400000C50B1F12001BFF4F7AF090728BFA0E8F5
:100410000C5048BF0CC05DF804EB890028BF40F8C1
:10042000042B08BF704748BF20F8022B11F0804F03
:1004300018BF00F8012B704770477047704775462A
:1004400000F02CF8AE4605006946534620F0070040
:10045000854618B020B5FFF713FFBDE820404FF0E8
:1004600000064FF000074FF000084FF0000B21F09E
:100470000701AC46ACE8C009ACE8C009ACE8C0096B
:10048000ACE8C0098D46704710B50446AFF3008054
:100490002046BDE81040FFF7DEBE00000048704770
:1004A000E006002001491820ABBEFEE7260002004E
:1004B0007047FEE770B5144C94F87A00002814D009
:1004C00000F0E2F9054694F8800078B1E06F40F65C
:1004D000B831281A884208D394F8780000EB40001D
:1004E00004EB400001F0AEFCE56770BD94F87800C5
:1004F00000EB400004EB400001F0A4FC0120E567A4
:1005000084F8800070BD00005C0600207047000089
:1005100070B5224E707801283FD0214D0121284628
:1005200000F0A0F9012801D0012400E000242246B7
:100530000121284600F0A3F9022000F093F84FF4BF
:100540008061184800F08EF9A04226D1164C94F82C
:100550007A000A281FD294F87900AA2100EB400003
:1005600004EB400504F81010552169700220A870B2
:100570000020E8702871A81C01F0B4FE687114F81E
:10058000790F0A21401CB0FBF1F201FB1200207030
:100590006078401C60700120707070BD1A000020EF
:1005A00000080240000402405C06002070472DE96C
:1005B000F0410446876D00F067F9064694F835006F
:1005C0000025022806D08020606584F83450012080
:1005D000BDE8F0812068016821F016010160206803
:1005E000416921F080014161206C08B9A06C20B103
:1005F0002068016821F0080101602068016821F08D
:10060000010101600CE000F03FF9801B052807D9CB
:1006100020206065032084F8350084F83450D7E743
:1006200020680068C007EED194F85C103F20884035
:10063000B860012084F8350084F834500020C7E702
:1006400090F83510022903D08021416501207047C0
:10065000052180F835100068016821F00101016072
:100660000020704770B5044600F00EF90546601C86
:1006700002D004480078044400F006F9401BA04270
:10068000FAD370BD040000202DE9F84FDFF8ACA1CB
:100690000022012403254FF00F090AF1040BAAF1EF
:1006A000040E00BF0B6804FA02F63340B3426ED169
:1006B0000F7907F00307012F01D0022F16D18768A9
:1006C0004FEA420805FA08FC27EA0C07D1F80CC0EB
:1006D0000CFA08FC4CEA070CC0F808C04768B7439E
:1006E0000E79C6F3001696403E4346600E79F643F7
:1006F000B6070AD0C6684FEA420C05FA0CF7BE43AB
:100700008F6807FA0CF73743C7600E7906F00306C7
:10071000022E10D1D60800EB8608D8F820605707C3
:100720004FEAD76C09FA0CF7BE430F6907FA0CF7CA
:100730003743C8F8207006684FEA420C05FA0CF7F8
:10074000BE430F7907F0030707FA0CF7374307603A
:100750004E6816F4403F6BD0394E376847F48047F7
:100760003760366822F0030706F480460096354E5F
:1007700007EB060CDCF8086897074FEA177809FAC8
:1007800008F7BE43304FB84202D100271FE04FE0C8
:100790002E4FB84201D1012719E02D4FB84201D1A7
:1007A000022714E02B4FB84201D103270FE02A4F54
:1007B000B84201D104270AE0284FB84201D10527E9
:1007C00005E0274FB84201D1062700E0072707FAC6
:1007D00008F73743CCF80878DAF800605746D1F8C4
:1007E00004C09E435FEACC2C00D51E433E60DBF87C
:1007F00000605F46D1F804C09E435FEA8C2C00D5B0
:100800001E433E60DEF800607746D1F804C09E4388
:100810005FEA8C3C00D51E433E60084F083F3E68AF
:10082000D1F804C09E435FEACC3C00D51E433E6035
:10083000521C102AFFF436AFBDE8F88F083C014087
:1008400044380240003001400000024000040240F1
:1008500000080240000C0240001002400014024058
:10086000001802400069084000D00120704742692A
:1008700021EA02030A4043EA0241816170470AB15A
:10088000816170470904FBE70148806870470000F8
:10089000040000200248816802781144816070479A
:1008A000040000200B4810B5016841F4007101609C
:1008B000016841F480610160016841F48071016068
:1008C000032000F06FF80F2000F006F800F024F885
:1008D000002010BD003C024070B50D4D04464FF4A1
:1008E0007A712878B1FBF0F00A490968B1FBF0F0A1
:1008F00000F03AFB48B9102C07D200222146501EC6
:1009000000F030F800206C6070BD012070BD000068
:1009100004000020100000200A4808B5016841F4D6
:1009200080410160006800F4804000900548001F8D
:10093000016841F080510160006800F08050009033
:1009400008BD000044380240002809DB00F01F0207
:10095000012191404009800000F1E020C0F8001121
:1009600070470000F0B40E4B1B680C46C3F3022323
:10097000C3F10705042D00D90425191D072901D24B
:10098000002300E0DB1E012606FA05F1491E214086
:1009900099409E40761E16403143F0BC01F0FEBBEC
:1009A0000CED00E0064900F0070208684FF6FF036F
:1009B000184040EA0220034A1043086070470000D4
:1009C0000CED00E00000FA052DE9F0470E460500A9
:1009D00065D0DFF81481D8F80000F7B200F00F00FE
:1009E000B04207D288F80070D8F8000000F00F007D
:1009F000B04254D128683D4C810712D5400703D539
:100A0000206840F4E05020602878000703D5206873
:100A100040F4604020602068A96820F0F00008439E
:100A200020602878C0072DD030496868083901282F
:100A300012D0022813D0032811D009688907002991
:100A40002DDA216821F0030101432160FFF71CFF2B
:100A5000814641F2883A0EE009688903EFE70968A8
:100A60008901ECE7FFF710FFA0EB0901514502D91E
:100A70000320BDE8F0872068696800F00C00B0EB47
:100A8000810FEFD1D8F80010404601F00F01B142BC
:100A900007D90770006800F00F00B04201D00120B4
:100AA000E7E72878400705D52068E96820F4E0509A
:100AB000084320602878000706D52068296920F4BB
:100AC000604040EAC100206000F038F82168084A20
:100AD000C1F30311515CC84006490860064800682C
:100AE000FFF7FAFE0020C4E7003C0240083802404D
:100AF00006230008100000200800002004480549D3
:100B000000680968044AC1F38221515CC8407047FB
:100B10001000002008380240162300080448054948
:100B200000680968044AC1F34231515CC84070470B
:100B3000100000200838024016230008224810B593
:100B4000006810F00C02214815D04110042A11D081
:100B50001D4C241F082A0FD00C2A0CD122682368B0
:100B600002F03F025B0221D52068C0F38810A0FB91
:100B7000010120E0084610BD2268236802F03F0210
:100B80005B0205D52068C0F38810A0FB010104E0DA
:100B90002168C1F38811A1FB00010023FFF782FB4C
:100BA0002168C1F30141491C49000AE02168C1F3F1
:100BB0008811A1FB00010023FFF774FB2168C1F33A
:100BC0000271B0FBF1F010BD083802400024F400BF
:100BD0002DE9F84F04007DD0DFF878B32078ABF131
:100BE0000407C007A7F1040550D0DBF800105846F1
:100BF000C1F3810101290FD00168C1F381010229EC
:100C000002D13968490207D40068C0F38100032883
:100C100009D13868400206D52868800336D5606857
:100C20000028D8D032E06068B0F5803F10D0B0F531
:100C3000A02F286810D020F480302860286820F485
:100C4000802028606068A0B1FFF71EFE06460CE019
:100C5000286840F48030F4E740F480202860F7E70B
:100C6000FFF712FE801B642876D828688003F7D52A
:100C70000CE0FFF709FE064605E000BFFFF704FEA3
:100C8000801B6428F0D828688003F7D42078DFF828
:100C9000C89280074FF0000A44D5DBF80010584690
:100CA00011F00C0F0FD00168C1F38101022902D1AC
:100CB0003968490207D50068C0F3810003280AD1CA
:100CC0003868400207D42868800715D5E0680128F5
:100CD00000D111E03AE1E068B0B10120C9F80000AC
:100CE000FFF7D2FD064604E0FFF7CEFD801B022889
:100CF000BAD828688007F7D52868216920F0F8005D
:100D000040EAC10028600DE0C9F800A0FFF7BCFD73
:100D1000064604E0FFF7B8FD801B02281CD82868AF
:100D20008007F7D42078000727D5DFF828828B4882
:100D3000616908F16C0881B101210160FFF7A4FD30
:100D4000064604E0FFF7A0FD801B022804D8D8F86F
:100D500000008007F6D510E089E0C0F800A0FFF79A
:100D600093FD064605E000BFFFF78EFD801B0228BD
:100D70007DD8D8F800008007F6D42078400769D5E0
:100D800074484FF0000838300068C0000BD4714838
:100D90003830016841F08051016000684FF001086F
:100DA00000F0805000906E4E3068C00511D430685D
:100DB00040F480703060FFF767FD009006E000BFF0
:100DC000FFF762FD0099401A022850D83068C0052C
:100DD000F6D5604EA068683601280FD00528306827
:100DE00010D020F001003060306820F00400306046
:100DF000A068B8B1FFF748FD00900FE0306840F000
:100E00000100F4E740F004003060F7E7FFF73CFD35
:100E10000099411A41F28830814264D830688007D5
:100E2000F4D50EE0FFF730FD009007E0FFF72CFD52
:100E30000099411A41F28830814254D830688007C5
:100E4000F4D4B8F1000F05D042483830016821F0E1
:100E500080510160A069A8B3DBF80010C1F38101E3
:100E6000022947D00228C9F860A005D000E03AE086
:100E7000FFF70AFD044639E0FFF706FD064604E0E9
:100E8000FFF702FD801B02282DD828688001F7D4C7
:100E9000F4E907010843E168324A490802EB0141DD
:100EA000A26841EA82110843217C40EA0160217D69
:100EB00040EA017038600120C9F86000FFF7E4FCE7
:100EC000044606E044E000BFFFF7DEFC001B0228FA
:100ED00009D828688001F7D53AE000BFFFF7D4FCB5
:100EE000001B022802D90320BDE8F88F2868800182
:100EF000F4D42DE00128F7D03868E26900F48001CD
:100F0000914223D1226A00F03F0191421ED147F65F
:100F1000C071626A0140B1EB821F17D1A26A4FF023
:100F2000FF3300F4403103EB5202B1EB024F0DD11D
:100F300094F82C2000F07061B1EB026F06D194F8A8
:100F4000301000F0E040B0EB017F01D00120CBE792
:100F50000020C9E70838024000004742800E47429F
:100F6000007000400000FFFF10B5401EB0F1807F10
:100F700001D3012010BD4FF0E02460610F21601704
:100F800001F00CF90020A06107202061002010BDB5
:100F90007047704710B5040003D094F83D0010B1BD
:100FA00007E0012010BD002084F83C00204600F03E
:100FB0001FF8022084F83D00211D206800F0AAFDE2
:100FC000012084F8460084F83E0084F83F0084F84D
:100FD000400084F8410084F8420084F8430084F81B
:100FE000440084F8450084F83D00002010BD000056
:100FF00008B500680B49884212D10B48016841F4DA
:10100000003101600068002200F4003000901146B9
:101010001920FFF7A7FCBDE808401920FFF794BC92
:1010200008BD0000004401404438024070472DE9EB
:10103000F04104460068C66805694FF00007A9073B
:1010400013D5B10711D5F91E016101202077206861
:1010500080698007204602D0FFF7E8FF04E000F037
:101060007EF8204600F07CF82777680716D57007D1
:1010700014D521686FF004000861022020772068F1
:10108000806910F4407F204602D0FFF7CFFF04E0D4
:1010900000F065F8204600F063F82777280715D59B
:1010A000300713D521686FF008000861042020770D
:1010B0002068C0698007204602D0FFF7B7FF04E030
:1010C00000F04DF8204600F04BF82777E80616D5DB
:1010D000F00614D521686FF0100008610820207711
:1010E0002068C06910F4407F204602D0FFF79EFFC1
:1010F00004E000F034F8204600F032F82777E807E3
:1011000008D0F00706D021686FF001000861204682
:1011100000F027F8280608D5300606D521686FF0BC
:10112000800008612046FFF733FF680608D5700687
:1011300006D521686FF040000861204600F012F8E3
:10114000A8060AD5B00608D521686FF0200008610E
:101150002046BDE8F041FFF71CBFBDE8F0817047B5
:10116000704770477047704770470000F8B50168D6
:1011700004460868CA684B6910F00F0F4FF000056D
:1011800059D003F0010602F49077374365D0C107C8
:1011900005D0D10503D5616C41F0010161644107BF
:1011A00005D5D90703D0616C41F002016164810764
:1011B00005D5D90703D0616C41F0040161640107D2
:1011C00007D502F02001314303D0616C41F00801E2
:1011D0006164616C00293AD0800604D5900602D57E
:1011E000204600F0CDFD20684069616CC0F380109E
:1011F000090700D460B3204600F09BFD20684069D9
:10120000400621D52068143050E8001F21F040012D
:1012100040E80012002AF5D1E06BA8B172490165DF
:10122000E06BFFF70DFA002811D0E06B016D01B003
:10123000BDE8F040084783060FD593060DD520463C
:10124000BDE8F84000F09CBD2046FFF78DFFF8BDDB
:101250002046FFF789FF6564F8BD266B2023012E29
:101260007ED1C6067CD5D6067AD508684868009037
:1012700048694FF0020640064DD5E26B10684068A1
:101280004FF480770004000C3AD0A18D814237D909
:10129000E085D069B8422DD020680C3050E8001F9E
:1012A00021F4807140E80012002AF5D12068143042
:1012B00050E8001F21F0010140E80012002AF5D19A
:1012C0002068143050E8001F21F0400140E800126F
:1012D000002AF5D184F84230256320680C3050E8AC
:1012E000001F21F0100140E80012002AF5D1E06B48
:1012F000FFF75DF96663A08DE18D401A81B206E0CB
:10130000A18D8142A8D1D069B842A5D1666320469B
:10131000FFF729FFF8BDA08DE18D401A81B2E08D65
:101320000028F7D00029F5D020680C3050E8002FB5
:1013300022F4907240E80027002FF5D12068143085
:1013400050E8002F22F0010240E80027002FF5D1DD
:1013500084F84230256320680C3050E8002F00E00C
:1013600006E022F0100240E80023002BF3D1CDE785
:1013700005062BD5150629D594F841002128C9D199
:10138000A068B0F5805F01D12069B0B1206A411C2E
:101390002162216800784860E08C401E0004000C47
:1013A000E084B7D12068C16821F08001C160206865
:1013B000C16841F04001C160F8BD206A0088C0F3F7
:1013C00008004860206A801C2062E5E74006F3D5EB
:1013D0005006F1D5CA68204622F04002CA6084F85F
:1013E000413000F0BDFAF8BD251D000870B50400BD
:1013F00004D094F84100002510B106E0012070BD32
:1014000084F84050204600F023F8242084F841005E
:101410002068C16821F40051C160204600F01AFD27
:101420002068016921F4904101612068416921F03F
:101430002A0141612068C16841F40051C1606564BE
:10144000202084F8410084F842006563002070BDCC
:10145000F0B587B0044614216846FEF7C6FF6D4913
:101460006B48236800246B4A10390325022608279D
:10147000DFF8A4C183421FD1106840F4002010603F
:10148000106800F400200590086840F00100086032
:101490000868CDE9005600F00100CDE90470694606
:1014A0006046CDE90245FFF7EFF8002211463420EF
:1014B000FFF758FA342035E0DFF860E1584873450B
:1014C00034D1136843F480131360126802F480125D
:1014D00005920A6842F004020A600A6802F00402F7
:1014E00005920A6842F008020A60096802AB01F03E
:1014F000080105918114CDE9001683E8B000694622
:10150000FFF7C2F80420CDE9000602AB694683E884
:10151000B0004448FFF7B8F8002211463520FFF725
:1015200021FA3520FFF710FA07B0F0BDDFF8F8E038
:101530000727734522D13748001D026842F0100288
:101540000260006800F010000590086840F002009A
:101550000860086802AA00F002000590C020CDE9EA
:10156000000682E8B00069463048FFF78DF8002297
:1015700011462520FFF7F6F92520D3E7DFF8B0E084
:10158000734520D1106840F400301060106800F4FA
:1015900000300590086840F001000860086802AB60
:1015A00000F0010005900C20CDE9000683E8B000B2
:1015B00069466046FFF768F8002211462620FFF7CB
:1015C000D1F92620AEE7DFF86CC06345ACD11368D3
:1015D00043F480231360126802F4802205920A68A3
:1015E00042F004020A60096802AB01F004010591AF
:1015F0004FF44061CDE9001683E8B0006946FFF77B
:1016000043F8002211462720FFF7ACF9272089E78D
:10161000004C0040403802400000024000500040B2
:1016200000080240000C024000100140000402408B
:10163000004400400048004090F84230202B01D088
:101640000220704721B11AB10023036300F088BC67
:10165000012070472DE9F0478A4B01688A4C012030
:101660000A2700254FF055084FF0AA09A4F58F6A04
:10167000994273D1A4F58E763178F2687AB13269E5
:10168000A4F5847011543069401C3061062852D38F
:10169000A4F5837000F026FE012806D049E0552904
:1016A00049D131753061F06045E0062277495046F6
:1016B000FEF76FFEE8B194F8790000EB400004EB10
:1016C000400304F8109083F8018006209870DD70C4
:1016D0001D71981C00F006FE587114F8790F401C1B
:1016E000B0FBF7F107FB110020706078401C6070C0
:1016F0001FE0307E032822D06348403890F83E1027
:101700000A2916D290F83D10A0F1CC0201EB41015C
:1017100000EB410153680B6012898A8010F83D1F6D
:10172000491CB1FBF7F207FB121101704178491C0B
:101730004170F56035610122554956489CE014F826
:10174000780F1421401CB0FBF1F201FB1200207055
:10175000A078401EA0702572EBE7FFE74E4A914249
:101760003BD14E4E3178F26882B3326902F80A10EA
:101770003069401C3061062824D306224349504674
:10178000FEF707FEE0B194F8790000EB400004EBAF
:10179000400304F8109083F8018005209870DD70F4
:1017A0001D71981C00F09EFD587114F8790F401CB3
:1017B000B0FBF7F107FB110020706078401C6070EF
:1017C000F560356101223549354855E0FFE7552977
:1017D000F8D131753061F060F4E7324A91423DD181
:1017E0002E4EDC363178F2688AB3326906F1140085
:1017F00011543169491C3161062923D3062223493A
:10180000FEF7C7FDE0B194F8790000EB400004EB6F
:10181000400304F8109083F8018004209870DD7074
:101820001D71981C00F05EFD587114F8790F401C72
:10183000B0FBF7F107FB110020706078401C60706E
:10184000F560356115490122DC31174814E0FFE7E6
:101850005529F7D131753061F060F3E713488142C3
:1018600003D101221249134806E01348814207D1EF
:10187000074901221148DC39BDE8F047FFF7DCBE1B
:10188000BDE8F087005000405C06002014000020F6
:1018900040050020B000002000100140D0010020D1
:1018A000F8000020004400404001002000480040B3
:1018B0008803002088010020004C004068000020C0
:1018C0002DE9F843044690F84100984616460D4627
:1018D000202802D00220BDE8F88385B17EB1002027
:1018E0006064212084F84100FEF7CEFFA684814683
:1018F000E684A0682027B0F5805F02D003E00120D5
:10190000E9E7206910B12E4600250EE000260CE024
:101910008021204600F03FFBA8B9C6B116F8010BA4
:1019200021684860E08C401EE084E08C4B464FF01C
:101930000002CDF800800028EAD14FF04001204697
:1019400000F029FB40B184F841700320C3E735F86B
:10195000020BC0F30800E3E784F841700020BAE707
:101960007047FEE72DE9F04186B014216846FEF786
:101970003CFD34480024016841F004010160016825
:1019800001F004010591016841F0800101600168E6
:1019900001F080010591016841F0010101600168D9
:1019A00001F001010591016841F002010160016847
:1019B00001F002010591016841F008010160006831
:1019C000214F00F008000590002205213846FEF75F
:1019D00056FFDFF8788040F2063600223146404656
:1019E000FEF74DFF4FF40040CDE90004694638464C
:1019F0000294FEF749FE052000900125CDE901542F
:101A0000694638460394FEF73FFE48F2C000CDE930
:101A1000000469460E480294FEF736FE0096CDE9B2
:101A20000154694640460394FEF72EFEA802CDE914
:101A30000004694640460294FEF726FE06B0BDE863
:101A4000F0810000303802400008024000040240EB
:101A500000000240FEE7FEE7704770477047FEF760
:101A600019BF000030B593B034216846FEF7BDFCC5
:101A700014210DA8FEF7B9FC1D480025016841F0AE
:101A800080510160006800F0805012901948016890
:101A900041F4404101600068022400F4404012908B
:101AA00001200090000401908001CDE9064004204F
:101AB00008909620CDE909040B9468460C94FFF732
:101AC00087F808B172B6FEE70DA90F2081E8310052
:101AD0004FF4A05010904FF48050119004210DA8A5
:101AE000FEF772FF002801D072B6FEE713B030BDDA
:101AF00040380240007000400248016841F4700123
:101B00000160704788ED00E00148FFF790BA0000DF
:101B100020000020F0B50268274B284D284E294FA1
:101B2000294C4FF0804C984209D0604507D0A8421C
:101B300005D0B04203D0B84201D0A04204D122F077
:101B4000700E4A6842EA0E0298421BD0604519D0D6
:101B5000A84217D0B04215D0B84213D0A04211D03D
:101B60001A4DA8420ED01A4DA8420BD0194DA842CA
:101B700008D0194DA84205D0184DA84202D0184DE2
:101B8000A84203D122F44075CA682A434D6922F065
:101B900080022A438D68C5620D688562984201D033
:101BA000A04201D109690163016841F004010160AB
:101BB000012141610260F0BD0000014000040040CD
:101BC00000080040000C00400004014000400140BB
:101BD000004401400048014000180040001C004043
:101BE000002000402DE9F047444E307801287DD098
:101BF000DFF80C914FF48078012241464846FEF709
:101C00003EFEFEF741FEFEF73FFE04464FF400475E
:101C10003C4D04E0FEF738FE001B0A2805D8394683
:101C20002846FEF71FFE0028F4D03C4639462846D9
:101C3000FEF718FE01284FD1FEF726FE074605E005
:101C400021462846FEF70EFE012804D1FEF71CFEB1
:101C5000C01B0328F4D321462F462846FEF702FE78
:101C6000012839D1FEF710FE054604E0FEF70CFE10
:101C7000401B0A2805D821463846FEF7F3FD012807
:101C8000F4D021463846FEF7EDFD28BB1E4D95F8F1
:101C90007A000A2820D295F87900AA2100EB4000AA
:101CA00005EB400405F81010552161700127A7705D
:101CB0000020E0702071A01C00F014FB607115F88A
:101CC000790F0A21401CB0FBF1F201FB12002870D1
:101CD0006878401C68703770002241464846FEF71D
:101CE000CEFD3078002806D1052000E003E0BDE8F5
:101CF000F047FEF7B7BCBDE8F08700001A000020EF
:101D000000040240000802405C0600200148FFF782
:101D10002DBA0000680000200148FFF727BA000034
:101D2000B000002010B5806B0021C185FFF71CFAC0
:101D300010BD01680C3151E8002F22F4907241E887
:101D40000023002BF5D10168143151E8002F22F057
:101D5000010241E80023002BF5D1016B012909D1D3
:101D600001680C3151E8002F22F0100241E80023F5
:101D7000002BF5D1202180F842100021016370472B
:101D800008B590F84210222901D0022008BD8268CF
:101D90004FF480539A4201D1016921B1816A9A427C
:101DA0001BD04AB10AE00268816A5268C2F3080295
:101DB0000A80816A891C08E0026972B1026852686F
:101DC00002F07F020A70816A491C8162C18D491E3E
:101DD0000904090CC18503D01BE002685268F1E7D1
:101DE0000168CA6822F02002CA600168CA6822F449
:101DF0008072CA6001684A6922F001024A612021AA
:101E000080F8421000214163026B012A03D0FFF7E2
:101E100021FC002008BD016301680C3151E8002F4E
:101E200022F0100241E80023002BF5D101680A6876
:101E3000D20602D50A6849680091818DFFF793F9AF
:101E4000E7E700006423014606220148FFF738BD9A
:101E50004001002070B5044600680169E26821F481
:101E60004051114301612169A068E2690843616939
:101E7000114308432168CA6849F20C639A4302433C
:101E8000CA6020684169A26921F44071114341612F
:101E900031492068884202D03049884202D1FEF799
:101EA0003DFE01E0FEF72AFEE269002319216425C8
:101EB0003226B2F5004F626828D0A0FB0101930FD3
:101EC0009200FEF7EFF90146B0FBF5F06FF0180253
:101ED000504301EB800006EB0010B0FBF5F000F082
:101EE000F002B1FBF5F002EB0012B1FBF5F06FF080
:101EF0001803584301EB800006EB0010B0FBF5F02F
:101F000000F00F0021681044886070BDA0FB010143
:101F100092185B41FEF7C6F90146B0FBF5F00201ED
:101F2000B1FBF5F06FF01803584301EB800006EBAE
:101F3000C000B0FBF5F000F0F80002EB4002B1FB8E
:101F4000F5F0584301EB800006EBC000B0FBF5F064
:101F500000F00700D6E70000001001400014014027
:101F600081628285C28500214164222180F842106D
:101F7000016921B10168CA6842F48072CA600168CF
:101F80004A6942F001024A610068C16841F02001DB
:101F9000C160002070472DE9F843984617460D466A
:101FA0000446089E24E0701C22D0FEF76DFCA0EBD6
:101FB0000800B0421AD8CEB12068C168490717D5C9
:101FC000802D15D0402D13D00168C94309070FD4C7
:101FD00001680025406800902046FFF7AAFE08200F
:101FE000606484F840500120BDE8F8830320FBE7DB
:101FF0002068006835EA000004D00020B842D2D042
:102000000020F1E70120F9E70148FFF7AFB8000031
:10201000F80000200148FFF7A9B8000040010020A7
:102020000148FFF7A3B8000088010020084810B558
:1020300090F83E1000290AD010F83C2F0A23521CB9
:10204000B2FBF3F403FB14220270491E817010BD31
:102050001C060020FEE700002DE9F0434A4D85B044
:10206000AE78042E3CD214216846FEF7BEF9DFF8A4
:102070001C910024BEB34648012E5CD04FF00308EB
:10208000022E6CD0032E2BD14FF40041FEF7EAFB59
:10209000012825D13F4F97F87A000A281ED297F8D9
:1020A0007900AA2100EB400007EB400607F810106A
:1020B0005521717086F80280F4703471B01C00F004
:1020C00011F9707117F8790F0A21401CB0FBF1F279
:1020D00001FB120038707878401C78700420A870DA
:1020E00005B0BDE8F083FFE74FF480670126009755
:1020F000CDE90164694648460394FEF7C5FACDE987
:1021000000640294244C69462046FEF7BDFA012182
:102110002046FEF7A7FB804639464846FEF7A7FB58
:102120000220FEF79FFA01212046FEF79BFB404567
:10213000D6D0AE70D4E780210646FEF793FB044666
:1021400004214846FEF793FB0220FEF78BFA80211C
:102150003046FEF787FB8442C2D00220BFE7402111
:102160000646FEF77FFB044602214846FEF77FFB4A
:102170000220FEF777FA40213046FEF773FB8442D7
:10218000AED085F80280ABE71A00002000040240C0
:10219000000002405C060020000802400907090E0A
:1021A000002804DB00F1E02080F80014704700F004
:1021B0000F0000F1E02080F8141D7047FEF772FB5D
:1021C000FFF750FCFFF7CEFB3E483D494FF4E136A8
:1021D00000240160C0E901640C25C460C0E9044525
:1021E0008461C461FFF702F908B172B6FEE73548B1
:1021F000354948300160C0E90164C460C0E9044564
:102200008461C461FFF7F2F808B172B6FEE72D48A9
:102210002E4990300160C0E90164C460C0E9044502
:102220008461C461FFF7E2F808B172B6FEE72548A1
:102230002749D8300160C0E90164C460C0E90445A1
:102240008461C461FFF7D2F808B172B6FEE7224894
:1022500020490160C0E90164C460C0E904458461AB
:10226000C461FFF7C3F808B172B6FEE715481B4911
:102270004838C0E900144FF41661C0E90241046116
:102280008461FEF787FE164C08B172B6FEE7FEF7D2
:10229000FBFA2168401A0A28F9D3FEF7F5FA206004
:1022A000FFF7A0FCFEF734F9FFF7D6FEFEF702F9C0
:1022B000FFF7BCFEFFF7D1FBFEF778F9E7E7000078
:1022C000004C004068000020005000400010014019
:1022D00000440040004800408801002000440140C4
:1022E000000000200178427880781144084410F002
:1022F000FF0F01D000207047012070474FF0407061
:10230000E1EE100A7047000000000000000001022A
:10231000030406070809000000000102030400008E
:1023200040230008000000202000000000020008F8
:102330006023000820000020200D00001C0200087F
:10234000000000000100000010000000000000007C
:102350000024F40055AAA55A00FF00000000000068
:04000005080001C529
:00000001FF
